:107000000C9434380C9446380C9446380C9446381A
:107010000C9446380C9446380C9446380C944638F8
:107020000C9446380C9446380C9446380C94E83945
:107030000C9446380C9446380C94C3390C9446385A
:107040000C9446380C9446380C9446380C944638C8
:107050000C9446380C9446380C9446380C940A3AF2
:107060000C9446380C94463811241FBECFEFD8E05C
:10707000DEBFCDBF11E0A0E0B1E001C01D92AE3C8B
:10708000B107E1F70E94A13B0C94EB3B0C94003854
:10709000FC018185813879F08238D1F1803809F49A
:1070A0003FC080912801811105C081E085BF15BED8
:1070B0000C940000089540818091B401481799F123
:1070C0004093B401818190E022813381DC01AA0FD9
:1070D000BB1FA05DBE4F2D933C9324813581DC0105
:1070E000AA0FBB1FAE5CBE4F2D933C932681378108
:1070F000FC01EE0FFF1FEC5CFE4F3183208386E026
:1071000090E090932D0180932C0180E10C94C43980
:10711000808180932B0190912801891731F2089585
:107120000C940038089580912C0190912D010696C1
:10713000218130E062817381D901AA0FBB1FA05D5C
:10714000BE4F6D937C9364817581D901AA0FBB1FDB
:10715000AE5CBE4F6D937C9366817781F901EE0F33
:10716000FF1FEC5CFE4F7183608390932D01809331
:107170002C018038910548F2E42FE695E695E695D6
:10718000F0E0E050FF4F808190E0242F277002C094
:10719000959587952A95E2F780FDB7CFF999FECFAF
:1071A00080E8489FA001112483E0FA0180935700F2
:1071B000E89507B600FCFDCFA0E3B1E09A012A1BD9
:1071C0003B0B61E0F901EA0FFB1F8D919D910C01D2
:1071D00060935700E8951124F1E0A03BBF0791F7B9
:1071E00085E0FA0180935700E89507B600FCFDCFD3
:1071F00081E180935700E8958CE00E94C43980912A
:10720000B401E82FE695E695E695F0E0E050FF4FF3
:10721000282F277081E090E0022E01C0880F0A9489
:10722000EAF79081982B9083809128018F5F80935B
:10723000280190912B01891709F437CF089581E037
:1072400085BF15BE0C9400000895CF93F89414B830
:1072500017B81AB815B818B81BB8529A5A9A14BC6D
:1072600025E025BD2FEF27BDE2E0E0936E001092F0
:107270008000109281002FE83BE03093890020933A
:107280008800E0936F005398239821EA2093B00080
:10729000E093B1001092B4001092B3002BE020BF35
:1072A00023E020937F0026E020937C0023E82093B6
:1072B0007A0020917A00206420937A0020917A004D
:1072C00026FDFCCF10927C0023EA20937A0021E077
:1072D00020937B0022E43FE030932A012093290190
:1072E00090931E0180931D017093200160931F01F4
:1072F000509322014093210181E090E00E94E33B02
:107300008F3F11F08093660080E990E00E94E33B9C
:107310008093230180912301887319F081E0809389
:1073200023011092C0011092BF018FEF90E0909363
:10733000BE018093BD011092BB0181E08093B50135
:107340008093BC011092B6011092CD0110922401DD
:1073500010922501109226011092270180931C01A2
:1073600080EB90E00E94E33BC82F81EB90E00E940D
:10737000E33B382F20E02C2B30932F0120932E015C
:107380007894CF910895189580FF11C0559A81FF88
:1073900011C0549A82FF11C03B9A83FF11C03A9AE0
:1073A00084FF11C03D9A85FD11C03C980895559801
:1073B00081FDEFCF549882FDEFCF3B9883FDEFCF57
:1073C0003A9884FDEFCF3D9885FFEFCF3C9A089522
:1073D0001F920F920FB60F9211248F939F931092CA
:1073E0008100109285001092840081E08093B501A5
:1073F0008093BC011092BB0110927C0093EA9093A1
:107400007A0080937B009F918F910F900FBE0F9019
:107410001F9018951F920F920FB60F9211242F9361
:107420003F934F935F936F937F938F939F93AF930C
:10743000BF93CF93DF93EF93FF932091840030911C
:10744000850041E04093BB018091B5018823A9F1FB
:107450001092850010928400409381001092CD011B
:107460001092B5018091BC018823A1F080917A002F
:1074700086FDFCCF80917800909179009093BA01BD
:107480008093B90181E080937C0093EA90937A0025
:1074900080937B00FF91EF91DF91CF91BF91AF91EE
:1074A0009F918F917F916F915F914F913F912F911C
:1074B0000F900FBE0F901F901895C9018758910922
:1074C00084379940E8F526583109A4EFB0E00E94CE
:1074D000D73B883008F46BC04093B5018091BC0164
:1074E000811142C08091B601E82FF0E0EF53FE4FCA
:1074F0009091CD0190838F5F8093B6018C3051F6CF
:107500001092810010928500109284004093BC017B
:107510001092BB01C091CB01D091CC0181EC91E0E4
:107520000E94E83AC817D90709F0B4CFE0911D01CD
:10753000F0911E0167EB71E081EC91E00995AACF13
:107540001092810010928500109284004093B50142
:107550004093BC011092BB0110927C0083EA80939F
:107560007A0040937B0096CF80917A0086FDFCCF15
:1075700080917800909179009093B8018093B70141
:1075800010927C0083EA80937A0081E080937B00F4
:107590009091CD019923B9F010928100109285004D
:1075A000109284008093BC011092BB0173CF21E044
:1075B00030E001C0220F8A95EAF78091CD01822B3D
:1075C0008093CD0167CF1092BC011092B60162CFBB
:1075D000FC0180812FEF3FEF2827022E2295207F8C
:1075E0002025032E322F22952F7002262695322732
:1075F0002327220F220F220F202581812827022EE8
:107600002295207F2025032E322F22952F700226CF
:10761000269532272327220F220F220F2025828131
:107620002827022E2295207F2025032E322F2295F7
:107630002F700226269532272327220F220F220F92
:10764000202583812827022E2295207F2025032EA6
:10765000322F22952F700226269532272327220FBC
:10766000220F220F202584812827022E2295207F99
:107670002025032E322F22952F70022626953227A1
:107680002327220F220F220F202585812827022E53
:107690002295207F2025032E322F22952F7002263F
:1076A000269532272327220F220F220F202586819D
:1076B0002827022E2295207F2025032E322F229567
:1076C0002F700226269532272327220F220F220F02
:1076D000202587812827022E2295207F2025032E12
:1076E000322F22952F700226269532272327220F2C
:1076F000220F220F202580852827022E2295207F09
:107700002025032E322F22952F7002262695322710
:107710002327220F220F220F202581852827022EC2
:107720002295207F2025032E322F22952F700226AE
:10773000269532272327220F220F220F2025C90149
:107740000895F89481E085BF82E085BFE0E0F1E034
:10775000119221E0EC31F207D9F78CED80932B01E7
:10776000109228011092B40110922D0110922C0158
:10777000789440E050E060E070E088E498E30E9494
:10778000253980E30E94C4398FE097E20197F1F731
:1077900000C0000080E00E94C4399FEF29E688E124
:1077A000915020408040E1F700C00000EACFA29F46
:1077B000B001B39FC001A39F01D0B29F700D811D86
:1077C0001124911D0895F999FECF92BD81BDF89ABB
:0A77D000992780B50895F894FFCFC3
:040000030000700089
:00000001FF
