:107000000C9434380C9446380C9446380C9446381A
:107010000C9446380C9446380C9446380C944638F8
:107020000C9446380C9446380C9446380C944638E8
:107030000C9446380C9446380C9446380C944638D8
:107040000C9446380C9446380C9448380C944638C6
:107050000C9446380C9446380C9446380C944638B8
:107060000C9446380C94463811241FBECFEFD8E05C
:10707000DEBFCDBF12E0A0E0B1E001C01D92A032A2
:10708000B107E1F70E94F0390C94403F0C940038AE
:107090001F920F920FB60F9211242F933F934F938D
:1070A0008F939F93AF93BF93EF93FF939091C600FD
:1070B000E0910401AE2FB0E0AB5FBE4F2C91809108
:1070C00003019C938927822780930301EF5FE438B3
:1070D000C0F4E09304012E2F30E0D901AB5FBE4F26
:1070E0009C919535C9F0FF91EF91BF91AF919F9120
:1070F0008F914F913F912F910F900FBE0F901F9046
:1071000018951092040120E030E0E0E0D901AB5F77
:10711000BE4F9C91953539F78111E5CF84E890E019
:10712000821B930BF0E0EB5FFE4FA8E9B1E09C01FE
:107130002E0F3F1F41914D93E217F307D9F7843883
:10714000910559F0A5E0B1E0FC01E856FE4F2D9104
:107150002193019684389105D0F381E08093020158
:107160008091990180939701BECFFC0180812FEF20
:107170003FEF2827022E2295207F2025032E322F35
:1071800022952F700226269532272327220F220FC1
:10719000220F202581812827022E2295207F20255D
:1071A000032E322F22952F70022626953227232771
:1071B000220F220F220F202582812827022E2295BE
:1071C000207F2025032E322F22952F700226269510
:1071D00032272327220F220F220F202583812827E1
:1071E000022E2295207F2025032E322F22952F70EC
:1071F0000226269532272327220F220F220F202531
:1072000084812827022E2295207F2025032E322FCD
:1072100022952F700226269532272327220F220F30
:10722000220F202585812827022E2295207F2025C8
:10723000032E322F22952F700226269532272327E0
:10724000220F220F220F202586812827022E229529
:10725000207F2025032E322F22952F70022626957F
:1072600032272327220F220F220F2025878128274C
:10727000022E2295207F2025032E322F22952F705B
:107280000226269532272327220F220F220F2025A0
:1072900080852827022E2295207F2025032E322F3D
:1072A00022952F700226269532272327220F220FA0
:1072B000220F202581852827022E2295207F202538
:1072C000032E322F22952F70022626953227232750
:1072D000220F220F220F2025C90108950FB6AAB14F
:1072E000209101012A2B2AB921E03091010120309F
:1072F00029F000002BB1232B2BB904C000000000A3
:10730000000000C000000000000030952BB12323D6
:107310002BB92EEA2A95F1F72BEE30B735FF0AC0CC
:10732000AAB93091010130952BB123232BB90FBE9F
:1073300080E0089500002A9581F721E03091010155
:10734000203029F000002BB1232B2BB904C0000002
:107350000000000000C000000000000030952BB1CC
:1073600023232BB9000024E52A95F1F7FC018CE0DA
:10737000619170E0660F771F616072609AE041E092
:1073800050E09A0126233723232B3091010120302E
:1073900029F000002BB1232B2BB904C00000000002
:1073A000000000C000000000000030952BB1232336
:1073B0002BB9000021E52A95F1F7440F551F9A9546
:1073C00001F78A95A9F620B7206120BFAAB93091AC
:1073D000010130952BB123232BB90FBE81E0089515
:1073E000F894539A219A29985B9880B7806880BF57
:1073F00081E085BF82E085BF8CE090E09093C5007E
:107400008093C4008091C0008D7F8093C0008091E4
:10741000C20086608093C2008091C1008869809319
:10742000C100789488E0809301018BE8882E81E088
:10743000982E90928A018092890190921F028092E8
:107440001E0290921D0280921C02299A2FEF81EE5B
:1074500094E0215080409040E1F700C0000029985E
:10746000EFEFF1EE24E0E150F0402040E1F700C002
:107470000000299A8FEF91EEE4E081509040E040C7
:10748000E1F700C000002998FFEF21EE84E0F15001
:1074900020408040E1F700C00000299A9FEFE1EE14
:1074A000F4E09150E040F040E1F700C0000029987E
:1074B0002FEF81EE94E0215080409040E1F700C032
:1074C0000000299AEFEFF1EE24E0E150F040204077
:1074D000E1F700C0000029988FEF91EEE4E08150C1
:1074E0009040E040E1F700C00000299AFFEF21EE54
:1074F00084E0F15020408040E1F700C0000029986E
:107500009FEFE1EEF4E09150E040F040E1F700C081
:1075100000009AE0B92ECC24C39428E0F22E31E882
:10752000D32E46E0E42E809102018823E1F31092ED
:10753000020180919701833009F455C408F052C0CC
:10754000813009F444C4823071F7E0911C02F0915B
:107550001D0280919A018083E0911C02F0911D022E
:1075600080919B018183E0911C02F0911D0280912A
:107570009C01828380919D01838380919E018483FD
:1075800080919F0185838091A00186838091A101D4
:1075900087838091A20180878091A30181878BE8F6
:1075A00091E00E94B5389093960180939501809167
:1075B00002018111B8CF8BE891E00E946E39299ABF
:1075C0008FE697E10197F1F700C000002998EFE6F8
:1075D000F7E13197F1F700C00000809102018823A4
:1075E00051F3A1CF853009F4ABC008F448C0863010
:1075F00009F099CFE0911C02F0911D0280919A014F
:107600008083E0911C02F0911D0280919B01818397
:10761000E0911C02F0911D0280919C018283809177
:107620009D01838380919E01848380919F01858346
:107630008091A00186838091A10187838091A2011E
:1076400080878091A30181878BE891E00E94B53803
:1076500090939601809395018BE891E00E946E399A
:10766000299A8FE697E10197F1F700C00000299869
:10767000EFE6F7E13197F1F700C0000054CFD09268
:107680009401E0918901F0918A0180919A018083AF
:107690001086F89480910201811142C0A091890165
:1076A000B0918A0111961C9211971296EBE9F1E0C4
:1076B0008E2D01900D928A95E1F78BE891E00E9462
:1076C000B53890939601809395018BE891E00E94E4
:1076D0006E39C1EAD1E016E080910201811120C02B
:1076E000A0918901B0918A01812F869511968C9382
:1076F00011971296FE018E2D01900D928A95E1F759
:107700008BE891E00E94B5389093960180939501A3
:107710008BE891E00E946E391A5F26961438E1F6E4
:107720007894299A8FE19EE40197F1F700C0000058
:107730002998EFE1FEE43197F1F700C00000F3CEA5
:10774000F4012B2D11922A95E9F7C0929401F89437
:10775000A0911E02B0911F02EAE9F1E08F2D019085
:107760000D928A95E1F7E0911E02F0911F0280814F
:107770009181892B81F482819381892B61F48481A9
:107780009581892B41F48681811105C0878190857F
:10779000892B09F40CC38BE891E00E94B5389093D3
:1077A0009601809395018BE891E00E946E3985E8FF
:1077B0008A95F1F70000A0911E02B0911F02E2EA43
:1077C000F1E08F2D01900D928A95E1F7E0911E0274
:1077D000F0911F0280819181892B81F482819381B4
:1077E000892B61F484819581892B41F486818111F3
:1077F00005C087819085892B09F4D9C28BE891E077
:107800000E94B53890939601809395018BE891E0A2
:107810000E946E3995E89A95F1F70000A0911E023A
:10782000B0911F02EAEAF1E08F2D01900D928A9546
:10783000E1F7E0911E02F0911F0280819181892B76
:1078400081F482819381892B61F484819581892BD4
:1078500041F48681811105C087819085892B09F4C7
:10786000A6C28BE891E00E94B53890939601809370
:1078700095018BE891E00E946E39E5E8EA95F1F711
:107880000000A0911E02B0911F02E2EBF1E08F2DEB
:1078900001900D928A95E1F7E0911E02F0911F028E
:1078A00080819181892B81F482819381892B61F47C
:1078B00084819581892B41F48681811105C087815E
:1078C0009085892B09F473C28BE891E00E94B5384A
:1078D00090939601809395018BE891E00E946E3918
:1078E000F5E8FA95F1F70000A0911E02B0911F0291
:1078F000EAEBF1E08F2D01900D928A95E1F7E0918E
:107900001E02F0911F0280819181892B81F4828176
:107910009381892B61F484819581892B41F486813F
:10792000811105C087819085892B09F440C28BE8BD
:1079300091E00E94B53890939601809395018BE871
:1079400091E00E946E3925E82A95F1F70000A09198
:107950001E02B0911F02E2ECF1E08F2D01900D921A
:107960008A95E1F7E0911E02F0911F0280819181DA
:10797000892B81F482819381892B61F484819581A3
:10798000892B41F48681811105C087819085892BDF
:1079900009F40DC28BE891E00E94B53890939601EE
:1079A000809395018BE891E00E946E3985E88A9575
:1079B000F1F70000A0911E02B0911F02EAECF1E085
:1079C0008F2D01900D928A95E1F7E0911E02F091C2
:1079D0001F0280819181892B81F482819381892B7F
:1079E00061F484819581892B41F48681811105C0E0
:1079F00087819085892B09F4DAC18BE891E00E9498
:107A0000B53890939601809395018BE891E00E94A0
:107A10006E3995E89A95F1F70000A0911E02B09199
:107A20001F02E2EDF1E08F2D01900D928A95E1F7B2
:107A3000E0911E02F0911F0280819181892B81F4D7
:107A400082819381892B61F484819581892B41F412
:107A50008681811105C087819085892B09F4A7C192
:107A60008BE891E00E94B538909396018093950140
:107A70008BE891E00E946E39E5E8EA95F1F70000A5
:107A8000A0911E02B0911F02EAEDF1E08F2D01904E
:107A90000D928A95E1F7E0911E02F0911F0280811C
:107AA0009181892B81F482819381892B61F4848176
:107AB0009581892B41F48681811105C0878190854C
:107AC000892B09F474C18BE891E00E94B53890933A
:107AD0009601809395018BE891E00E946E39F5E85C
:107AE000FA95F1F70000A0911E02B0911F02E2EE9C
:107AF000F1E08F2D01900D928A95E1F7E0911E0241
:107B0000F0911F0280819181892B81F48281938180
:107B1000892B61F484819581892B41F486818111BF
:107B200005C087819085892B09F441C18BE891E0DC
:107B30000E94B53890939601809395018BE891E06F
:107B40000E946E3925E82A95F1F70000A0911E02E7
:107B5000B0911F02EAEEF1E08F2D01900D928A950F
:107B6000E1F7E0911E02F0911F0280819181892B43
:107B700081F482819381892B61F484819581892BA1
:107B800041F48681811105C087819085892B09F494
:107B90000EC18BE891E00E94B538909396018093D6
:107BA00095018BE891E00E946E3985E88A95F1F79E
:107BB0000000A0911E02B0911F02E2EFF1E08F2DB4
:107BC00001900D928A95E1F7E0911E02F0911F025B
:107BD00080819181892B81F482819381892B61F449
:107BE00084819581892B41F48681811105C087812B
:107BF0009085892B09F4DBC08BE891E00E94B538B1
:107C000090939601809395018BE891E00E946E39E4
:107C100095E89A95F1F70000A0911E02B0911F021D
:107C2000EAEFF1E08F2D01900D928A95E1F7E09156
:107C30001E02F0911F0280819181892B81F4828143
:107C40009381892B61F484819581892B41F486810C
:107C5000811105C087819085892B09F4A8C08BE824
:107C600091E00E94B53890939601809395018BE83E
:107C700091E00E946E39E5E8EA95F1F70000A091E5
:107C80001E02B0911F02E2E0F2E08F2D01900D92F2
:107C90008A95E1F7E0911E02F0911F0280819181A7
:107CA000892B81F482819381892B61F48481958170
:107CB000892B41F48681811105C087819085892BAC
:107CC00009F475C08BE891E00E94B5389093960155
:107CD000809395018BE891E00E946E39F5E8FA9562
:107CE000F1F70000A0911E02B0911F02EAE0F2E05D
:107CF0008F2D01900D928A95E1F7E0911E02F0918F
:107D00001F0280819181892B81F482819381892B4B
:107D100061F484819581892B41F48681811105C0AC
:107D200087819085892B09F442C08BE891E00E94FD
:107D3000B53890939601809395018BE891E00E946D
:107D40006E3925E82A95F1F70000A0911E02B09146
:107D50001F02E2E1F2E08F2D01900D928A95E1F78A
:107D6000E0911E02F0911F0280819181892B79F4AC
:107D700082819381892B59F484819581892B39F4EF
:107D80008681811104C087819085892B81F08BE8E1
:107D900091E00E94B53890939601809395018BE80D
:107DA00091E00E946E3985E88A95F1F70000789499
:107DB000299AEFE1FEE43197F1F700C0000029981D
:107DC0008FE19EE40197F1F700C00000ACCB81E0A9
:107DD00090910001911180E080930001882309F4C3
:107DE0004DC0299AA0CBE0911C02F0911D02809118
:107DF0009A018083E0911C02F0911D0280919B0109
:107E00008183E0911C02F0911D0280919C0182838C
:107E100080919D01838380919E01848380919F0145
:107E200085838091A00186838091A10187838091C1
:107E3000A20180878091A30181878091A40182871C
:107E40008091A50183878091020181116CCB8BE821
:107E500091E00E946E39299A8FE697E10197F1F738
:107E600000C000002998EFE6F7E13197F1F700C074
:107E7000000080910201882351F355CB299853CB00
:047E8000F894FFCFA4
:040000030000700089
:00000001FF
